:100000000C9434000C9451000C9451000C94510049
:100010000C9451000C9451000C9451000C9451001C
:100020000C9451000C9451000C9451000C9451000C
:100030000C9451000C9451000C9451000C945100FC
:100040000C9451000C9451000C9451000C945100EC
:100050000C9451000C9451000C9451000C945100DC
:100060000C9451000C94510011241FBECFEFD8E026
:10007000DEBFCDBF13E0A0E0B1E0EAE9FAE602C0DE
:1000800005900D92AA38B107D9F723E0AAE8B3E0AA
:1000900001C01D92AE38B207E1F70E9495300C9472
:1000A00034350C9400008F929F92AF92BF92CF9202
:1000B000DF92EF92FF92CF93DF9349015A01C9017A
:1000C0008F7799278733910509F45DC05CF58B31F3
:1000D000910509F41BC18CF48331910509F481C0A9
:1000E0008731910509F465C08330910509F4A7C0F3
:1000F0009F938F938AE191E001C18332910509F4C6
:10010000BEC083339105A1F7C501B4010E947318E5
:10011000EC01E981E83008F0EDC0F0E0EA5CFA4C6F
:100120000C94C5308736910509F453C0ECF48B3339
:10013000910509F4F9C083369105D1F6C501B401E2
:100140000E948117EC018981853009F42CC108F0E7
:10015000ACC0813009F42AC1843009F42AC181116C
:10016000A1C08DE49AE116C08F36910551F1833715
:10017000910509F0BDCFC501B4010E94A116EC01A3
:1001800086EF98E207C0C501B4010E94A115EC01F9
:1001900089EB98E1AC01BE01CB01BA01DF91CF91AF
:1001A000FF90EF90DF90CF90BF90AF909F908F9097
:1001B0000895C501B4010E94A115EC0180EF98E1FA
:1001C000E9CFC501B4010E94E415EC0185E499E191
:1001D000E1CFC501B4010E94A116EC0184EC99E1C4
:1001E000D9CFC501B4010E94A116EC01E981E83024
:1001F00008F080C0F0E0E25CFA4C0C94C5308EE56B
:1002000091E2C8CF8CE292E2C5CF80E992E2C2CF00
:1002100084EF92E2BFCF88E593E2BCCF2D812074BA
:1002200030E040E050E060E070E080E090E0A0E08E
:100230000E94283109F0A8C081EB93E2ABCFC50141
:10024000B4010E94A116EC01E981E73008F052C028
:10025000F0E0EA5BFA4C0C94C5308DE19EE19ACF58
:100260008DE89EE197CF8FEC99E294CF8EE19FE1EC
:1002700091CF8DE89FE18ECF8DE399E28BCFC501C1
:10028000B4010E94FE16EC018981823009F482C01B
:1002900030F4811509F481C089E490E27BCF83308A
:1002A00009F47EC01F928F9327C0863009F484C062
:1002B0008730C1F783E19DE16DCF81EC95E26ACF94
:1002C0008C81811509F47EC08EED94E263CF87E3C3
:1002D00096E260CF8DEA96E25DCF8C81811509F4BC
:1002E00074C087E897E256CF8FEE97E253CF81E64E
:1002F00098E250CF1F92EF9386E091E09F938F9307
:100300000E944A2F81E895E00E943435C501B4016E
:100310000E94A116EC018981813009F459C0853011
:10032000B9F0811509F457C0C501B4010E947318D2
:10033000EC018981813009F454C08530C9F0811104
:10034000B1CF8C81811509F44FC082ED9CE222CFA0
:100350002D81207430E040E050E060E070E080E00B
:1003600090E0A0E00E942831C9F587E89BE212CF17
:100370008C818115E1F18BE29EE20CCF8FEF90E250
:1003800009CF85EC91E206CF8AE094E203CF81EABF
:100390009DE100CF82EA90E2FDCE82EF9FE1FACEAE
:1003A0008DE39AE2F7CE87EF9BE1F4CE8BED9AE1F5
:1003B000F1CE89E69BE1EECE85E89CE1EBCE89E5C6
:1003C00095E2E8CE83E694E2E5CE8FE197E2E2CED5
:1003D00080E29BE2DFCE8FEA9AE2DCCE8AEF9BE2FC
:1003E000D9CE83E49DE2D6CE81E69CE2D3CE86EBE5
:1003F0009DE2D0CE8F929F92AF92BF92CF92DF922A
:10040000EF92FF920F931F93CF93DF93EB0180E363
:1004100090E00E9434318C010E947E09D8011C9624
:10042000FC901C971D96EC901D971E96DC901E97D5
:100430001F96CC901F975096BC9050975196AC90B9
:10044000519752969C90529753968C90F882E982DD
:10045000DA82CB82BC82AD829E828F82FE01389688
:1004600080E091E0DF019C011D9221503040E1F7D6
:10047000C8010E94CD3188E1888F8DED898F85EF8D
:100480008A8F85E08B8F1C8E1D8E1E8E1F8E8F9205
:100490009F92AF92BF92CF92DF92EF92FF928EE245
:1004A00091E09F938F930E944A2F8DB79EB70A9633
:1004B0000FB6F8949EBF0FBE8DBFDF91CF911F91F5
:1004C0000F91FF90EF90DF90CF90BF90AF909F90F3
:1004D0008F900895EF92FF920F931F93CF93DF9326
:1004E00000D000D0CDB7DEB7FC0120813181428140
:1004F00053816481758184E0E82EF12C8E010F5FB9
:100500001F4F868197810E941F306A8170E080E0D2
:1005100090E0982F872F762F66272981622B2B81D9
:10052000822B2C81922B0F900F900F900F90DF91C8
:10053000CF911F910F91FF90EF9008959F92AF92EE
:10054000BF92CF92DF92EF92FF920F931F93CF93C0
:10055000DF93EC01289600E010E080E4E82E81E0D3
:10056000F82EE881F981BA81DB80CC80BD80AE8035
:100570009F8028969F014B2F5D2D6C2D7B2D8A2D02
:10058000992DA0E00E942831B1F09F92AF92BF92C6
:10059000CF92DF92BF93FF93EF931F930F93FF923E
:1005A000EF920E944A2F8DB79EB70C960FB6F89423
:1005B0009EBF0FBE8DBF0F5F1F4F0032110589F622
:1005C000DF91CF911F910F91FF90EF90DF90CF902F
:1005D000BF90AF909F900895CF93DF93EC018F81F0
:1005E0008F938E818F938D818F938C818F938B814D
:1005F0008F938A818F9389818F9388818F938BE4E6
:1006000091E09F938F930E944A2FCE010E949E02F9
:1006100080E691E09F938F930E944A2F8DB79EB7FB
:100620000C960FB6F8949EBF0FBE8DBFDF91CF9191
:1006300008952F923F924F925F926F927F928F9286
:100640009F92AF92BF92CF92DF92EF92FF920F9361
:100650001F93CF93DF93CDB7DEB72C970FB6F894E7
:10066000DEBF0FBECDBF89879A8789859A850E9494
:100670006A024B015C01BF928F939F926F9386E653
:1006800091E09F938F930E944A2F9401A50160E00F
:1006900070E080E090E00E9453002B013C01FC01DF
:1006A000A985BA85BC91B983A985BA851196BC91F3
:1006B000BA83A985BA851296BC91BB83A985BA85F0
:1006C0001396BC91BC83A985BA851496BC91BD8351
:1006D000A985BA851596BC91BE83A985BA8516965B
:1006E000BC91BF83A985BA851796BC91B887A080B5
:1006F000B180C280D380E480F58006811781208597
:100700003185428553856485758589859A85F20191
:100710000995A985BA8518961C92189719961C9266
:1007200019971A961C921A971B961C921B971C9647
:100730001C921C971D961C921D971E961C921E972C
:100740001F961C921F97CD010E94EC02E985FA8545
:100750002080318082809380B481A581F681FB87DF
:10076000E985FA85F781FC870F900F900F900F9025
:100770000F900F909101A4016B2F7A2F8B859F2FE3
:10078000A980BA80CB80DC80ED80FE800F81188547
:100790000E941F31D1F4A4E00E940A31A985BA85D4
:1007A0002C9311963C93119712964C931297139693
:1007B0005C93139714966C93149715967C931597E6
:1007C00016968C93169717969C93C3012C960FB68A
:1007D000F894DEBF0FBECDBFDF91CF911F910F9177
:1007E000FF90EF90DF90CF90BF90AF909F908F9051
:1007F0007F906F905F904F903F902F900C94CD31F1
:10080000CF93DF93EC01288139814A815B816C8130
:100810007D818E819F812115314E454F5540610567
:100820007105810591055CF088E791E09F938F93B6
:100830000E944A2F0F900F90DF91CF910895CE0123
:100840000E941903E0CF6F927F928F929F92AF9296
:10085000BF92CF92DF92EF92FF920F931F93CF93AD
:10086000DF93CDB7DEB7380149015A016B0187012B
:10087000E988FA888B899C892D893E894F89588D12
:100880005F934F933F932F939F938F93FF92EF929A
:100890001F930F93DF926F93BF92AF929F928F92AD
:1008A0007F926F928CE991E09F938F930E944A2FE1
:1008B0009301A401B501C6010E94B32F0FB6F894AD
:1008C000DEBF0FBECDBFDF91CF911F910F91FF9083
:1008D000EF90DF90CF90BF90AF909F908F907F90E0
:1008E0006F9008956F927F928F929F92AF92BF9276
:1008F000CF92DF92EF92FF920F931F93CF93DF93EC
:10090000CDB7DEB7380149015A016B018701E9888B
:10091000FA888B899C892D893E894F89588DDF9271
:100920006F93BF92AF929F928F927F926F925F93DD
:100930004F933F932F939F938F93FF92EF9288EC67
:1009400091E09F938F930E944A2F9301A401B501D8
:10095000C6010E941F300FB6F894DEBF0FBECDBF98
:10096000DF91CF911F910F91FF90EF90DF90CF908B
:10097000BF90AF909F908F907F906F900895CF928F
:10098000DF92EF92FF920F931F93CF93DF9300D0EC
:1009900000D0CDB7DEB76801B22FA32FF42FE52F1B
:1009A000CB0124E0E22EF12C8E010F5F1F4F960148
:1009B0004B2F5A2F6F2F7E2F0E941F303A81932F7B
:1009C000990F990B2981492F592F692F792F892F39
:1009D0000F900F900F900F90DF91CF911F910F917B
:1009E000FF90EF90DF90CF900895CF92DF92EF923B
:1009F000FF920F931F93CF93DF93CDB7DEB7289766
:100A00000FB6F894DEBF0FBECDBF6801B22FA32F83
:100A1000F42FE52FCB0128E0E22EF12C8E010F5FA1
:100A20001F4F96014B2F5A2F6F2F7E2F0E941F3082
:100A3000E12CF12C20E030E040E050E060E070E09C
:100A400080E090E0D801ED918D01F0E00E2C02C025
:100A5000EE0FFF1F0A94E2F7AF2FAA0FAA0B2E2B5F
:100A60003F2B4A2B5A2B6A2B7A2B8A2B9A2BB8E0D6
:100A7000EB0EF11CE0E4EE16F10421F728960FB618
:100A8000F894DEBF0FBECDBFDF91CF911F910F91C4
:100A9000FF90EF90DF90CF900895BF92CF92DF92BA
:100AA000EF92FF920F931F93CF93DF93FC01DB0133
:100AB0008381428150E060E070E0BA01552744270D
:100AC000782B8081482B018110E0102F0027012E08
:100AD000000C220B330B402B512B622B732B4D93AD
:100AE0005D936D937C931397278530E040E050E051
:100AF00060E070E080E090E008E30E94CB30D22F0D
:100B0000B32E6A017B01182FC92F268530E040E003
:100B100050E060E070E080E090E000E30E94CB30C5
:100B2000D22B2085D22BB32AC42AD52AE62AF72A2B
:100B3000182BC92B258530E040E050E060E070E0E4
:100B400080E090E008E20E94CB30D22BB32AC42A86
:100B5000D52AE62AF72A182BC92B248530E040E055
:100B600050E060E070E080E090E000E20E94CB3076
:100B7000D22BB32AC42AD52AE62AF72A182BC92B46
:100B8000238530E040E050E060E070E080E090E0FD
:100B900008E10E94CB30D22BB32AC42AD52AE62AF8
:100BA000F72A182BC92B228530E040E050E060E0A6
:100BB00070E080E090E000E10E94CB302D2B3B29DB
:100BC0004C295D296E297F29812BC92B9185192FED
:100BD000110F110B392B412B512B612B712B812BB9
:100BE000C12B18962C93189719963C9319971A961F
:100BF0004C931A971B965C931B971C966C931C97AF
:100C00001D967C931D971E968C931E971F96CC93D2
:100C10001F97278930E040E050E060E070E080E01E
:100C200090E008E30E94CB30D22FB32E6A017B0103
:100C3000182FC92F268930E040E050E060E070E0D6
:100C400080E090E000E30E94CB30D22B2089D22BB1
:100C5000B32AC42AD52AE62AF72A182BC92B2589B4
:100C600030E040E050E060E070E080E090E008E2DA
:100C70000E94CB30D22BB32AC42AD52AE62AF72ADF
:100C8000182BC92B248930E040E050E060E070E090
:100C900080E090E000E20E94CB30D22BB32AC42A3D
:100CA000D52AE62AF72A182BC92B238930E040E001
:100CB00050E060E070E080E090E008E10E94CB301E
:100CC000D22BB32AC42AD52AE62AF72A182BC92BF5
:100CD000228930E040E050E060E070E080E090E0A9
:100CE00000E10E94CB302D2B3B294C295D296E2938
:100CF0007F29812BC92B9189D92FDD0FDD0B392B52
:100D00004D2B5D2B6D2B7D2B8D2BCD2B50962C934E
:100D1000509751963C93519752964C9352975396B5
:100D20005C93539754966C93549755967C93559730
:100D300056968C9356975796CC935797278D30E0BD
:100D400040E050E060E070E080E090E008E30E9466
:100D5000CB30D22FB32E6A017B01182FC92F268DDD
:100D600030E040E050E060E070E080E090E000E3E0
:100D70000E94CB30D22B208DD22BB32AC42AD52A65
:100D8000E62AF72A182BC92B258D30E040E050E0E9
:100D900060E070E080E090E008E20E94CB30D22B6F
:100DA000B32AC42AD52AE62AF72A182BC92B248D60
:100DB00030E040E050E060E070E080E090E000E291
:100DC0000E94CB30D22BB32AC42AD52AE62AF72A8E
:100DD000182BC92B238D30E040E050E060E070E03C
:100DE00080E090E008E10E94CB30D22BB32AC42AE5
:100DF000D52AE62AF72A182BC92B228D30E040E0AD
:100E000050E060E070E080E090E000E10E94CB30D4
:100E10002D2B3B294C295D296E297F29812BC92B3C
:100E2000918DD92FDD0FDD0B392B4D2B5D2B6D2BCC
:100E30007D2B8D2BCD2B58962C93589759963C9300
:100E400059975A964C935A975B965C935B975C962E
:100E50006C935C975D967C935D975E968C935E97A2
:100E60005F96CC935F9727A130E040E050E060E0D0
:100E700070E080E090E008E30E94CB30D22FB32EE8
:100E80006A017B01182FC92F26A130E040E050E015
:100E900060E070E080E090E000E30E94CB30D22B75
:100EA00020A1D22BB32AC42AD52AE62AF72A182B46
:100EB000C92B25A130E040E050E060E070E080E028
:100EC00090E008E20E94CB30D22BB32AC42AD52A64
:100ED000E62AF72A182BC92B24A130E040E050E085
:100EE00060E070E080E090E000E20E94CB30D22B26
:100EF000B32AC42AD52AE62AF72A182BC92B23A1FC
:100F000030E040E050E060E070E080E090E008E138
:100F10000E94CB30D22BB32AC42AD52AE62AF72A3C
:100F2000182BC92B22A130E040E050E060E070E0D7
:100F300080E090E000E10E94CB302D2B3B294C2932
:100F40005D296E297F29812BC92B91A1D92FDD0F16
:100F5000DD0B392B4D2B5D2B6D2B7D2B8D2BCD2B55
:100F600090962C93909791963C93919792964C9350
:100F7000929793965C93939794966C939497959687
:100F80007C93959796968C9396979796CC939797F4
:100F900027A530E040E050E060E070E080E090E0C5
:100FA00008E30E94CB30D22FB32E6A017B01182FA9
:100FB000C92F26A530E040E050E060E070E080E01E
:100FC00090E000E30E94CB30D22B20A5D22BB32A95
:100FD000C42AD52AE62AF72A182BC92B25A530E0E2
:100FE00040E050E060E070E080E090E008E20E94C5
:100FF000CB30D22BB32AC42AD52AE62AF72A182BBB
:10100000C92B24A530E040E050E060E070E080E0D3
:1010100090E000E20E94CB30D22BB32AC42AD52A1A
:10102000E62AF72A182BC92B23A530E040E050E030
:1010300060E070E080E090E008E10E94CB30D22BCD
:10104000B32AC42AD52AE62AF72A182BC92B22A5A7
:1010500030E040E050E060E070E080E090E000E1EF
:101060000E94CB302D2B3B294C295D296E297F29ED
:10107000812BC92B91A5D92FDD0FDD0B392B4D2BE2
:101080005D2B6D2B7D2B8D2BCD2B98962C939897CC
:1010900099963C9399979A964C939A979B965C93C2
:1010A0009B979C966C939C979D967C939D979E9600
:1010B0008C939E979F96CC939F9727A930E040E012
:1010C00050E060E070E080E090E008E30E94CB3008
:1010D000D22FB32E6A017B01182FC92F26A930E029
:1010E00040E050E060E070E080E090E000E30E94CB
:1010F000CB30D22B20A9D22BB32AC42AD52AE62A58
:10110000F72A182BC92B25A930E040E050E060E019
:1011100070E080E090E008E20E94CB30D22BB32A4E
:10112000C42AD52AE62AF72A182BC92B24A930E08D
:1011300040E050E060E070E080E090E000E20E947B
:10114000CB30D22BB32AC42AD52AE62AF72A182B69
:10115000C92B23A930E040E050E060E070E080E07F
:1011600090E008E10E94CB30D22BB32AC42AD52AC2
:10117000E62AF72A182BC92B22A930E040E050E0DC
:1011800060E070E080E090E000E10E94CB302D2B29
:101190003B294C295D296E297F29812BC92B91A9D7
:1011A000E92FEE0FEE0B392B4E2B5E2B6E2B7E2B89
:1011B0008E2BCE2BD0962C93D097D1963C93D19753
:1011C000D2964C93D297D3965C93D397D4966C9344
:1011D000D497D5967C93D597D6968C93D697D79659
:1011E000CC93DF91CF911F910F91FF90EF90DF9003
:1011F000CF90BF90089508950F931F93CF93DF93DF
:10120000EC018B01FB01848190E09D838C8302972C
:1012100041F086EE91E09F938F930E944A2F0F90AA
:101220000F90F801858190E09F838E83019741F0B4
:101230008AE092E09F938F930E944A2F0F900F9025
:10124000F8018089918999878887828993899B870A
:101250008A87833F910541F085E292E09F938F93C7
:101260000E944A2F0F900F90F801808D8C87818DFE
:101270008D87828D8E87838D8F87848D888B858DDA
:10128000898B868D8A8B878D8B8B80A18C8B81A19E
:101290008D8B82A18E8B83A18F8B84A1888F85A15A
:1012A000898F86A18A8F87A18B8F80A58C8F81A53E
:1012B0008D8F82A58E8F83A58F8F84A588A385A50A
:1012C00089A386A58AA387A58BA384A995A99DA395
:1012D0008CA386A997A99FA38EA380AD91AD99A752
:1012E00088A782AD93AD9BA78AA784AD95AD9DA736
:1012F0008CA7DF91CF911F910F9108952F923F926C
:101300004F925F926F927F928F929F92AF92BF9215
:10131000CF92DF92EF92FF920F931F93CF93DF93C1
:10132000CDB7DEB7C05AD1090FB6F894DEBF0FBEF5
:10133000CDBF8C0180E10E94412F80E2EA968FAF01
:10134000EA9761E070E0CE0187589F4F0E94E32E3C
:1013500060E470E0CE0101960E94F42EBE016F5F42
:101360007F4FC8010E94FC08F80180A591A528E3E1
:10137000AC01249FC001259F900D11240E9434319F
:10138000F80197A786A7A12CB12CE12CF12CF8012C
:10139000C0A4D1A4EC14FD040CF494C028E32C9D4B
:1013A000C0012D9D900D11249C01205C3F4FCD5715
:1013B000DF4F2883C358D040CC57DF4F3883C45801
:1013C000D040F32FFF0FFF0BCE57DF4FF883C258EB
:1013D000D040CB57DF4FF883C558D040C257DF4FBE
:1013E000F883CE58D040C157DF4FF883CF58D04054
:1013F000C057DF4FF883C059D040CF56DF4FF88336
:10140000C159D0400E9434311C01F80186A597A52E
:1014100040E050E020E030E0412C512C68E32C15F6
:101420003D050CF467C00E94CD315F924F928CE372
:1014300092E09F938F930E944A2F80E490E00E9455
:101440003431C156DF4F8883CF59D040C056DF4F6B
:101450009883C05AD0405F924F9282E692E09F9369
:101460008F930E944A2F0FB6F894DEBF0FBECDBFF8
:10147000C656DF4F19821882CA59D040C656DF4F70
:10148000E881F981CA59D040E415F5050CF452C041
:10149000C056DF4F0FB6F894DEBF0FBECDBFDF9151
:1014A000CF911F910F91FF90EF90DF90CF90BF9061
:1014B000AF909F908F907F906F905F904F903F90F4
:1014C0002F90089568E370E0CE018F5B9F4F0E94DC
:1014D000F42EF80166A577A56A0D7B1DCE018F5B02
:1014E0009F4F0E944D05FFEFEF1AFF0A28E3A20E5F
:1014F000B11C4DCFFC01E40FF51F80809180A280CC
:10150000B3808A9489288A288B2879F4649DD00135
:10151000659DB00D1124A20DB31D762F01900D9283
:101520007A95E1F7EFEF4E1A5E0A2F5F3F4F485C66
:101530005F4F75CFF101808491843401F0A1CA57C7
:10154000DF4FF883C658D040F101F1A1C957DF4FF2
:10155000F883C758D040F101F2A1C857DF4FF88394
:10156000C858D040F101F3A1C757DF4FF883C958DD
:10157000D040F101F4A1C657DF4FF883CA58D040DC
:10158000F101F5A1C557DF4FF883CB58D040F101E9
:10159000F6A1C457DF4FF883CC58D040F101F7A132
:1015A000C357DF4FF883CD58D040F101F089CE56B4
:1015B000DF4FF883C259D040F101F189CD56DF4F9A
:1015C000F883C359D040F101F289CC56DF4FF8833C
:1015D000C459D040F101F389CB56DF4FF883C55988
:1015E000D040F101F489CA56DF4FF883C659D04084
:1015F000F101F589C956DF4FF883C759D040F10191
:10160000F689C856DF4FF883C859D040F101F789F1
:10161000C756DF4FF883C959D0409F928F9224E775
:1016200032E03F932F930E944A2FC357DF4F5881D8
:10163000CD58D0405F93C457DF4F6881CC58D0401D
:101640006F93C557DF4F7881CB58D0407F93C657F3
:10165000DF4F8881CA58D0408F93C757DF4F98819A
:10166000C958D0409F93C857DF4FE881C858D04031
:10167000EF93C957DF4FF881C758D040FF93CA573F
:10168000DF4F2881C658D0402F9346E852E05F9341
:101690004F930E944A2FC756DF4F7881C959D040D7
:1016A0007F93C856DF4F8881C859D0408F93C95661
:1016B000DF4F9881C759D0409F93CA56DF4FE881CA
:1016C000C659D040EF93CB56DF4FF881C559D04073
:1016D000FF93CC56DF4F2881C459D0402F93CD566D
:1016E000DF4F3881C359D0403F93CE56DF4F4881FA
:1016F000C259D0404F9361E972E07F936F930E948B
:101700004A2F0FB6F894DEBF0FBECDBF940140E064
:1017100050E060E070E080E090E0CD57DF4FA880BF
:10172000C358D040CC57DF4FB880C458D040CE57B4
:10173000DF4FC880C258D040CB57DF4FD880C55844
:10174000D040C257DF4FE880CE58D040C157DF4F5E
:10175000F880CF58D040C057DF4F0881C059D040E3
:10176000CF56DF4F1881C159D0400E941F3108F079
:1017700037C11F93C057DF4FF881C059D040FF9346
:10178000C157DF4F2881CF58D0402F93C257DF4F2A
:101790003881CE58D0403F93CB57DF4F4881C55852
:1017A000D0404F93CE57DF4F5881C258D0405F93FF
:1017B000CC57DF4F6881C458D0406F93CD57DF4F6F
:1017C0007881C358D0407F939F928F928DE992E0A9
:1017D0009F938F930E944A2FCA57DF4F2881C65884
:1017E000D040C957DF4F3881C758D040C857DF4F66
:1017F0004881C858D040C757DF4F5881C958D0409A
:10180000C657DF4F6881CA58D040C557DF4F78812F
:10181000CB58D040C457DF4F8881CC58D040C357F5
:10182000DF4F9881CD58D040CD57DF4FA880C358A7
:10183000D040CC57DF4FB880C458D040CE57DF4F90
:10184000C880C258D040CB57DF4FD880C558D04051
:10185000C257DF4FE880CE58D040C157DF4FF880E5
:10186000CF58D040C057DF4F0881C059D040CF5625
:10187000DF4F1881C159D0400E9416315401C12C4C
:10188000D12CE12CF12C00E010E00E940131CA576C
:10189000DF4F2883C658D040C957DF4F3883C75819
:1018A000D040C857DF4F4883C858D040C757DF4F94
:1018B0005883C958D040C657DF4F6883CA58D040B4
:1018C000C557DF4F7883CB58D040C457DF4F88834C
:1018D000CC58D040C357DF4F9883CD58D040CD5718
:1018E000DF4F6880C358D040CC57DF4F7880C45852
:1018F000D04020E030E0CE57DF4F4881C258D04082
:10190000CB57DF4F5881C558D040C257DF4F688151
:10191000CE58D040C157DF4F7881CF58D040C05704
:10192000DF4F8881C059D040CF56DF4F9881C159D1
:10193000D040CE56DF4FA880C259D040CD56DF4FA1
:10194000B880C359D040CC56DF4FC880C459D0406E
:10195000CB56DF4FD880C559D040CA56DF4FE880FC
:10196000C659D040C956DF4FF880C759D040C85635
:10197000DF4F0881C859D040C756DF4F1881C95979
:10198000D0400E940131CE56DF4F2883C259D0404B
:10199000CD56DF4F3883C359D040CC56DF4F4883F4
:1019A000C459D040CB56DF4F5883C559D040CA5692
:1019B000DF4F6883C659D040C956DF4F7883C75977
:1019C000D040C856DF4F8883C859D040C756DF4F34
:1019D0009883C959D0400FB6F894DEBF0FBECDBF73
:1019E000930140E050E060E070E0CB01EB966FAE19
:1019F000EB97EC963FAFEC97ED964FAFED97EE96E9
:101A00005FAFEE97EF966FAFEF97C158DF4F7883D8
:101A1000CF57D040C058DF4F8883C058D040CF57F1
:101A2000DF4F9883C158D040CD57DF4F2881C3582E
:101A3000D040CC57DF4F3881C458D040CE57DF4F0D
:101A40004881C258D040CB57DF4F5881C558D0404D
:101A5000C257DF4F6881CE58D040C157DF4F7881E1
:101A6000CF58D040C057DF4F8881C059D040CF56A3
:101A7000DF4F9881C159D040EB96AFACEB97EC9615
:101A8000BFACEC97C12CD12CE12CF12C00E010E084
:101A90000E941F3108F4AEC0EB962FADEB97EC9689
:101AA0003FADEC97ED964FADED97EE965FADEE97AF
:101AB000EF966FADEF97C158DF4F7881CF57D04089
:101AC000C058DF4F8881C058D040CF57DF4F988132
:101AD000C158D040CA57DF4FA880C658D040C95718
:101AE000DF4FB880C758D040C857DF4FC880C858AC
:101AF000D040C757DF4FD880C958D040C657DF4FB6
:101B0000E880CA58D040C557DF4FF880CB58D04046
:101B1000C457DF4F0881CC58D040C357DF4F1881DE
:101B2000CD58D0400E940131CD57DF4F2883C35894
:101B3000D040CC57DF4F3883C458D040CE57DF4F0A
:101B40004883C258D040CB57DF4F5883C558D04048
:101B5000C257DF4F6883CE58D040C157DF4F7883DC
:101B6000CF58D040C057DF4F8883C059D040CF56A0
:101B7000DF4F9883C159D040CA57DF4F2881C658DC
:101B8000D040C957DF4F3881C758D040C857DF4FC2
:101B90004881C858D040C757DF4F5881C958D040F6
:101BA000C657DF4F6881CA58D040C557DF4F78818C
:101BB000CB58D040C457DF4F8881CC58D040C35752
:101BC000DF4F9881CD58D040A0E00E94283109F025
:101BD000C5C0C656DF4F88819981CA59D040019649
:101BE000C656DF4F99838883CA59D04098E3290E9F
:101BF000311C44CCEB962FADEB97EC963FADEC97B8
:101C000040E050E060E070E080E090E0CD57DF4FD2
:101C1000A880C358D040CC57DF4FB880C458D040BC
:101C2000CE57DF4FC880C258D040CB57DF4FD88047
:101C3000C558D040C257DF4FE880CE58D040C1577A
:101C4000DF4FF880CF58D040C057DF4F0881C059D0
:101C5000D040CF56DF4F1881C159D0400E94163175
:101C6000CE57DF4F2883C258D040CD57DF4F38833F
:101C7000C358D040CC57DF4F4883C458D040CB57CF
:101C8000DF4F5883C558D0403B014C01CE57DF4F42
:101C9000A880C258D040CD57DF4FB880C358D0403D
:101CA000CC57DF4FC880C458D040CB57DF4FD880C7
:101CB000C558D040730184019501A601B301C40148
:101CC000A1E40E94283148F080E4A82EB12CC12C58
:101CD000D12CE12CF12C00E010E0B501C156DF4F12
:101CE0008881CF59D040C056DF4F9881C05AD0402C
:101CF0000E94F42ECE57DF4F2881C258D040CD57D6
:101D0000DF4F3881C358D040CC57DF4F4881C4588B
:101D1000D040CB57DF4F5881C558D040B301C401E4
:101D20000E941631CE57DF4F2883C258D040CD577E
:101D3000DF4F3883C358D040CC57DF4F4883C45857
:101D4000D040CB57DF4F5883C558D0403B014C01A2
:101D5000A0E00E94283109F099CF9ECECA57DF4FEC
:101D60003881C658D040EB963FAFEB97C957DF4F4D
:101D70009880C758D040C857DF4F4881C858D040D6
:101D8000C456DF4F4883CC59D040C757DF4F5881E6
:101D9000C958D040C356DF4F5883CD59D040C6579D
:101DA000DF4F6881CA58D040C256DF4F6883CE5992
:101DB000D040C557DF4F8880CB58D040C457DF4F45
:101DC0006880CC58D040C357DF4F7880CD58D04082
:101DD000232F392D782DC301A1E40E942831B8F0BA
:101DE00070E4EB967FAFEB97912CC456DF4F1882CF
:101DF000CC59D040C356DF4F1882CD59D040C2567F
:101E0000DF4F1882CE59D040812C612C712CEB967B
:101E10006FADEB97792DC156DF4F8881CF59D040F8
:101E2000C056DF4F9881C05AD0400E94F42EEB96E6
:101E3000EFACEB97F92CC156DF4F0881CF59D0405A
:101E4000C056DF4F1881C05AD040CE56DF4F288190
:101E5000C259D040CD56DF4F3881C359D040CC56FF
:101E6000DF4F4881C459D040CB56DF4F5881C55908
:101E7000D040CA56DF4F6881C659D040C956DF4F9F
:101E80007881C759D040C856DF4F8881C859D040A3
:101E9000C756DF4F9881C959D0400E94B32FCA5707
:101EA000DF4F2881C658D040C957DF4F3881C75807
:101EB000D040C857DF4F4881C858D040C757DF4F80
:101EC0005881C958D040C657DF4F6881CA58D040A2
:101ED000C557DF4F7881CB58D040C457DF4F88813A
:101EE000CC58D040C357DF4F9881CD58D040EB96A7
:101EF000AFACEB97B92CC456DF4FC880CC59D0405B
:101F0000C356DF4FD880CD59D040C256DF4FE8804E
:101F1000CE59D040F82C83010E941631CA57DF4FAA
:101F20002883C658D040C957DF4F3883C758D040A0
:101F3000C857DF4F4883C858D040C757DF4F588332
:101F4000C958D040C657DF4F6883CA58D040C557DC
:101F5000DF4F7883CB58D040C457DF4F8883CC58AD
:101F6000D040C357DF4F9883CD58D0402A2D392D0C
:101F7000A6016E2D782DC301CE56DF4FA880C25921
:101F8000D040CD56DF4FB880C359D040CC56DF4F3C
:101F9000C880C459D040CB56DF4FD880C559D040F7
:101FA000CA56DF4FE880C659D040C956DF4FF88087
:101FB000C759D040C856DF4F0881C859D040C756CE
:101FC000DF4F1881C959D0400E940131CE56DF4FF2
:101FD0002883C259D040CD56DF4F3883C359D040F3
:101FE000CC56DF4F4883C459D040CB56DF4F58837F
:101FF000C559D040CA56DF4F6883C659D040C9562C
:10200000DF4F7883C759D040C856DF4F8883C859FF
:10201000D040C756DF4F9883C959D040ADCD2F92DD
:102020003F924F925F926F927F928F929F92AF9268
:10203000BF92CF92DF92EF92FF920F931F93CF93B5
:10204000DF93CDB7DEB766970FB6F894DEBF0FBE4D
:10205000CDBF89879A8709831A832B833C834D835D
:102060005E836F8378878BA58B879CA59C878DA5C6
:102070008D879EA59E878FA58F8798A9988B89A904
:10208000898B9AA99A8B8BA98B8B9CA99C8B8DA9E8
:102090008D8B9EA99E8B8FA998AD29AD3AAD4BAD86
:1020A0005CAD6DAD7EADEFAD2196FFAD2197229673
:1020B000AFAD22972396BFAD239724961FAD2497EB
:1020C00025960FAD259726967FAC269727966FAC61
:1020D000279728965FAC289729964FAC29972A9680
:1020E0003FAC2A972B962FAC2B972F923F924F9273
:1020F0005F926F927F920F931F93BF93AF93FF9363
:10210000EF937F936F935F934F933F932F939F939F
:102110008F938E898F939D899F938C898F939B89B1
:102120009F938A898F9399899F9388898F939F859D
:102130009F938E858F939D859F938C858F939B8591
:102140009F93FF92EF92DF92CF92BF92AF929F92B6
:102150008F9288858F939F819F938E818F939D818E
:102160009F938C818F939B819F938A818F93998179
:102170009F938FEC92E09F938F930E944A2F0FB60C
:10218000F894DEBF0FBECDBF81E490E00E943431F1
:102190006C0100E020E341E450E0BC0184EF92E0F8
:1021A0000E94AC2E7C011F921F921F921F921F92C1
:1021B0001F921F9281E4B82EBF9209811A812B8150
:1021C0003C814D815E816F81788589859A850E94E9
:1021D000230400E020E341E450E0B60186E693E00A
:1021E0000E94AC2E7C0129813A814B815C816D81FA
:1021F0007E818F819885A1E40E940A3189019A012C
:10220000AB01BC011F921F921F921F921F921F923F
:102210001F92BF9289859A850E94230400E020E3E3
:1022200041E450E0B6018AEF92E00E94AC2E7C01BE
:1022300029813A814B815C816D817E818F81988576
:102240002E573F4F4F4F5F4F6F4F7F4F8F4F9F4FD7
:1022500089019A01AB01BC011F921F921F921F922C
:102260001F921F921F92BF9289859A850E94230414
:1022700000E020E341E450E0B60186E693E00E94EE
:10228000AC2E7C0129813A814B815C816D817E81FC
:102290008F8198852D533F4F4F4F5F4F6F4F7F4F2B
:1022A0008F4F9F4F89019A01AB01BC011F921F9272
:1022B0001F921F921F921F921F92BF9289859A852B
:1022C0000E9423040FB6F894DEBF0FBECDBF00E01E
:1022D00020E341E450E0B60180E093E00E94AC2EA0
:1022E0007C0129813A814B815C816D817E818F8166
:1022F00098852C5F3E4F4F4F5F4F6F4F7F4F8F4FF3
:102300009F4F89019A01AB01BC011F921F921F923E
:102310001F921F921F921F92BF9289859A850E94D9
:10232000230400E020E341E450E0B60186E693E0B8
:102330000E94AC2E7C0129813A814B815C816D81A8
:102340007E818F8198852B5B3E4F4F4F5F4F6F4F44
:102350007F4F8F4F9F4F89019A01AB01BC011F92A4
:102360001F921F921F921F921F921F92BF928985E8
:102370009A850E9423040FB6F894DEBF0FBECDBF2E
:102380002FEF3FEF4FEF5FEF6FEF7FEF8FEF9FEF9D
:1023900066960FB6F894DEBF0FBECDBFDF91CF912A
:1023A0001F910F91FF90EF90DF90CF90BF90AF9073
:1023B0009F908F907F906F905F904F903F902F9065
:1023C0000895CF93DF93CDB7DEB725E430E040E04A
:1023D00050E060E070E080E090E0DF91CF91089500
:1023E000CF93DF93CDB7DEB72FEF3FEF4FEF5FEF28
:1023F0006FEF7FEF8FEF9FEFDF91CF910895CF9336
:10240000DF93CDB7DEB789019F938F937F936F934F
:102410005F934F931F932F9388E093E09F938F9345
:102420000E944A2F2AEA3AEA8AEA9AE22150304088
:1024300080409040D9F7C8010E9434352F923F92D6
:102440004F925F926F927F928F929F92AF92BF92C4
:10245000CF92DF92EF92FF920F931F93CF93DF9370
:10246000CDB7DEB7A0970FB6F894DEBF0FBECDBFD5
:102470008F87988B2DA9298F8EA98A8F9FA99B8FD3
:1024800028AD2C8F89AD8D8F9AAD9E8F2BAD2F8F60
:102490008CAD88A389829A82AB82BC82CD82DE8297
:1024A000EF82F88619861A861B861C861D861E8674
:1024B000612C712C812C912C29853A854B855C856A
:1024C0006D857E85C301A98CBA8CCB8CDC8CED8CA0
:1024D000FE8C0F8D18A10E941F3114F1992D990FB8
:1024E000990B9401492F592F692F792F892FA09685
:1024F0000FB6F894DEBF0FBECDBFDF91CF911F9115
:102500000F91FF90EF90DF90CF90BF90AF909F9092
:102510008F907F906F905F904F903F902F90089595
:1025200009811A812B813C814D815E816F81788583
:102530008F8598890E94BF04298B3A8B4B8B5C8BCB
:102540006D8B7E8B8F8B988F29813A814B815C813B
:102550006D817E818F819885A8E00E940A31890172
:102560009A01AB01BC018F8598890E94BF04122F8C
:10257000032FF42EE52E562E472E382E292EA22E6E
:10258000B32EC5010E9434316C012F923F924F92BD
:102590005F92EF92FF920F931F937C0109891A8932
:1025A0002B893C894D895E896F89788D8F859889C3
:1025B0000E94720483E193E09F938F930E944A2FBD
:1025C000DF92CF928BE193E09F938F930E944A2FEB
:1025D0008EE193E09F938F930E944A2F8A0C9B1C5D
:1025E000C6010E94CD3129853A854B855C856D8574
:1025F0007E85C301A1E00E940A3129873A874B8773
:102600005C876D877E873C0129813A814B815C81A3
:102610006D817E818F819885A0E10E940A31298396
:102620003A834B835C836D837E838F8398870FB659
:10263000F894DEBF0FBECDBF3FCFEF92FF920F9356
:102640001F93CF93DF93CDB7DEB7FC017901B42F91
:10265000A52FCB019801A7016B2F7A2FA8E00E942C
:102660000A3189019A01AB01BC01CF010E94F50436
:1026700020E030E040E050E060E070E080E090E09A
:10268000DF91CF911F910F91FF90EF9008952F92BE
:102690003F924F925F926F927F928F929F92AF92F2
:1026A000BF92CF92DF92EF92FF920F931F93CF933F
:1026B000DF93CDB7DEB7AA970FB6F894DEBF0FBE93
:1026C000CDBF89A79AA7E9A5FAA5E057FF4F2081BA
:1026D000298331813A8382818B8393819C832481F6
:1026E0002D8335813E8386818F8397819887E9A5E5
:1026F000FAA5E85AFF4F0081118122812987338191
:102700003A8784818B8795819C8726812D873781A5
:102710003E87E9A5FAA5E05AFF4F80809180A2800C
:10272000B380C480D580E680F780E9A5FAA5E85992
:10273000FF4F708061805280438084818F879581B4
:10274000988B2681298B37813A8BE9A5FAA5E05928
:10275000FF4F80818B8B91819C8B22812D8B3381CC
:102760003E8B84818F8B9581988F2681298F37812D
:102770003A8FE9A5FAA5E858FF4F80818B8F9181A8
:102780009C8F22812D8F33813E8F84818F8F958105
:1027900098A3268129A337813AA3E9A5FAA5E05891
:1027A000FF4F80818BA391819CA322812DA3338134
:1027B0003EA384818FA3958198A73680278083E2EA
:1027C00093E09F938F930E944A2FE885EF93FF81B8
:1027D000FF932E812F933D813F938C818F939B811B
:1027E0009F93EA81EF93F981FF9383E393E09F93B3
:1027F0008F930E944A2F8EE193E09F938F930E94C4
:102800004A2F0FB6F894DEBF0FBECDBF29813A81A3
:102810004B815C816D817E818F819885A0E60E94CD
:10282000283109F48CC1A1E60E9428314CF5A2E4BC
:102830000E94283109F4B5C0ADE50E942831B9F5F0
:10284000FE85FF932D852F933C853F938B858F933A
:102850009A859F93E985EF931F930F9388E093E008
:102860009F938F930E944A2FFAEA2AEA3AEA8AE271
:10287000F150204030408040D9F7C8010E943435E3
:1028800029813A814B815C816D817E818F81988520
:10289000A5E60E94283109F4F2C0203A310541052D
:1028A0005105610571058105910509F403C1F8859C
:1028B000FF932F812F933E813F938D818F939C8136
:1028C0009F93EB81EF93FA81FF9329812F938BE202
:1028D00093E09F938F930E944A2F2F923F9238A5A7
:1028E0003F938FA18F939EA19F93EDA1EF93FCA1A6
:1028F000FF932BA12F933AA13F9389A18F9398A186
:102900009F93EF8DEF93FE8DFF932D8D2F933C8D35
:102910003F938B8D8F939A8D9F93E98DEF93F88DD5
:10292000FF932F892F933E893F938D898F939C89A5
:102930009F93EB89EF93FA89FF9329892F93388925
:102940003F938F858F934F925F926F927F92FF920A
:10295000EF92DF92CF92BF92AF929F928F929E851D
:102960009F93ED85EF93FC85FF932B852F933A85FD
:102970003F9389858F931F930F9380E493E09F93F8
:102980008F930E944A2F0FB6F894DEBF0FBECDBFC3
:102990002FEF3FEF4FEF5FEF6FEF7FEF8FEF9FEF87
:1029A00049C02F923F92F8A5FF932FA12F933EA1EC
:1029B0003F938DA18F939CA19F93EBA1EF93FAA1DD
:1029C000FF9329A12F9338A13F938F8D8F939E8DD5
:1029D0009F93ED8DEF93FC8DFF932B8D2F933A8D6D
:1029E0003F93898D8F93988D9F93EF89EF93FE8905
:1029F000FF932D892F933C893F938B898F939A89DD
:102A00009F93E989EF93F889FF932F852F934F9236
:102A10005F926F927F9229853A854B855C856D85A3
:102A20007E8589A59AA50E941E120FB6F894DEBF76
:102A30000FBECDBFE9A5FAA5E85AFF4F2083318329
:102A4000428353836483758386839783AA960FB6E4
:102A5000F894DEBF0FBECDBFDF91CF911F910F91D4
:102A6000FF90EF90DF90CF90BF90AF909F908F90AE
:102A70007F906F905F904F903F902F9008959801B6
:102A800049855A856B857C858D859E85A8E00E9449
:102A90000A3189019A01AB01BC0189A59AA50E945E
:102AA000F50420E030E040E050E060E070E080E0DD
:102AB00090E0C0CF2F923F9298A59F93EFA1EF9304
:102AC000FEA1FF932DA12F933CA13F938BA18F9348
:102AD0009AA19F93E9A1EF93F8A1FF932F8D2F93D4
:102AE0003E8D3F938D8D8F939C8D9F93EB8DEF93B8
:102AF000FA8DFF93298D2F93388D3F938F898F9374
:102B00009E899F93ED89EF93FC89FF932B892F93E7
:102B10003A893F9389898F9398899F93EF85EF93A3
:102B20004F925F926F927F9229853A854B855C85A3
:102B30006D857E8589A59AA50E940F1076CF25E424
:102B4000B1CF8F929F92AF92BF92CF92DF92EF92CE
:102B5000FF920F931F93CF93DF934B015C018EE0A5
:102B600090E00E943431EC0184E08D87D501C401EE
:102B700027E0B695A795979587952A95D1F78F71F8
:102B80008883882480EF982200E210E09401A50158
:102B900060E070E080E090E00E949E2E2D833E83F6
:102BA0004F83588769877A878B879C87CE01DF910F
:102BB000CF911F910F91FF90EF90DF90CF90BF903A
:102BC000AF909F908F9008952F923F924F925F9277
:102BD0006F927F928F929F92AF92BF92CF92DF922D
:102BE000EF92FF920F931F93CF93DF93CDB7DEB792
:102BF0002B970FB6F894DEBF0FBECDBF6B017C01E3
:102C00008EE090E00E9434318A879B8785E0EA85D8
:102C1000FB858587D701C60127E0B695A7959795CF
:102C200087952A95D1F78F7180833CE0F694E794DD
:102C3000D794C7943A95D1F7260137019601A3019D
:102C400060E070E080E090E003E10E94E43004E1A5
:102C50000E94CB301901142FB52FA62F7987F82F9A
:102C6000E92FDD24EE24FF24A701960160E070E047
:102C7000CB01C9823A834B835C836D837E838F83D0
:102C8000988760E070E080E090E00CE00E94CB303C
:102C90007C01222A332AD12ED42AB52BA62BC98413
:102CA000C72A9201A30160E070E080E090E009E0B3
:102CB0000E94E43001E00E94CB302E7F3770222A40
:102CC000132D132B9201A30160E070E080E090E0EF
:102CD00008E00E94E4300BE00E94CB303870312BCA
:102CE00005E110E0222D4D2D5B2F6A2F7C2D8F2FBB
:102CF0008E299E2F9F290E949E2EEA85FB85258383
:102D00003683478350876187728783879487CF0193
:102D10002B960FB6F894DEBF0FBECDBFDF91CF91DB
:102D20001F910F91FF90EF90DF90CF90BF90AF90E9
:102D30009F908F907F906F905F904F903F902F90DB
:102D400008958F929F92AF92BF92CF92DF92EF92AF
:102D5000FF920F931F93CF93DF934B015C018EE0A3
:102D600090E00E943431EC0181E08D87D501C401EF
:102D700027E0B695A795979587952A95D1F78F71F6
:102D80008883D501C4013CE0B695A79597958795B2
:102D90003A95D1F787708983D501C4014FE0B69584
:102DA000A795979587954A95D1F78F718A8354E1B6
:102DB000B694A794979487945A95D1F70CE010E0B5
:102DC0009401A50160E070E080E090E00E949E2EFA
:102DD0002D833E834F83588769877A878B879C87AB
:102DE000CE01DF91CF911F910F91FF90EF90DF9077
:102DF000CF90BF90AF909F908F9008954F925F9229
:102E00006F927F928F929F92AF92BF92CF92DF92FA
:102E1000EF92FF920F931F93CF93DF936B017C018F
:102E20008EE090E00E943431EC0182E08D87D70182
:102E3000C6012CE0B695A795979587952A95D1F769
:102E400087708983D701C6013FE0B695A79597950E
:102E500087953A95D1F78F718A83D701C60144E1EE
:102E6000B695A795979587954A95D1F78F718B83DE
:102E70002601370159E176946794579447945A95FF
:102E8000D1F79201A30160E070E080E090E005E0FE
:102E90000E94CB30E7E0F694E794D794C794EA9584
:102EA000D1F7EFE1CE22DD24EE24FF242601370105
:102EB000812C912C54012C29352946295729682920
:102EC00079290CE010E08A299B290E949E2E2D83EF
:102ED0003E834F83588769877A878B879C87CE018B
:102EE000DF91CF911F910F91FF90EF90DF90CF90E6
:102EF000BF90AF909F908F907F906F905F904F901A
:102F000008952F923F924F925F926F927F928F928D
:102F10009F92AF92BF92CF92DF92EF92FF920F9368
:102F20001F93CF93DF93CDB7DEB72A970FB6F894F0
:102F3000DEBF0FBECDBF4B015C018EE090E00E9472
:102F4000343189879A8783E0E985FA858587D501B9
:102F5000C4012CE0B695A795979587952A95D1F74A
:102F600087708183D501C4013FE0B695A7959795F9
:102F700087953A95D1F78F718283D501C40144E1D9
:102F8000B695A795979587954A95D1F78F718383C5
:102F9000D501C40157E0B695A795979587955A95A1
:102FA000D1F781709927AA27BB276C017D019C016D
:102FB000A70160E070E080E090E00CE00E94CB3080
:102FC000722E232E342E452EF62FE72F582E692EE3
:102FD000D501C40169E1B695A795979587956A953E
:102FE000D1F78F739927AA27BB277C018D019C01FC
:102FF000A80160E070E080E090E005E00E94CB3046
:10300000722A232AB32DB42BA42DA52BF62BE72B44
:10301000582A692AB501A401442777FD439555270D
:10302000662777276A017B0100E010E09801498359
:10303000DA82EB82FC820D831E832F8338879A010C
:10304000A70160E070E080E090E00BE00E94CB30F0
:10305000722A122D132BB42BA52BF62BE72B582AF3
:10306000692A892C9A2CAB2CBB240FE0802299244E
:10307000AA24BB249401A50160E070E080E090E008
:1030800001E00E94CB302729312B4B2B5A2B6F2B81
:103090007E2B0CE010E0852996290E949E2EE98562
:1030A000FA852583368347835087618772878387B4
:1030B0009487CF012A960FB6F894DEBF0FBECDBF1E
:1030C000DF91CF911F910F91FF90EF90DF90CF9004
:1030D000BF90AF909F908F907F906F905F904F9038
:1030E0003F902F900895CF92DF92EF92FF926B0165
:1030F0007C018EE090E00E943431FC011586D701FE
:10310000C60127E0B695A795979587952A95D1F79B
:103110008F718083D701C6013CE0B695A79597953E
:1031200087953A95D1F787708183D701C6014FE023
:10313000B695A795979587954A95D1F78F71828314
:10314000D701C60154E1B695A795979587955A95ED
:10315000D1F78F71838369E1F694E794D794C7948C
:103160006A95D1F7C482CF01FF90EF90DF90CF90A6
:103170000895AF92BF92CF92DF92EF92FF920F939A
:103180001F93CF93DF93CDB7DEB72E970FB6F8948A
:10319000DEBF0FBECDBFB12C7FEFA71AB70A73E019
:1031A000AA0CBB1C7A95E1F7FC01EA0DFB1DF0822D
:1031B00001831283238334834583568367832E964A
:1031C0000FB6F894DEBF0FBECDBFDF91CF911F9138
:1031D0000F91FF90EF90DF90CF90BF90AF90089548
:1031E000AF92BF92CF92DF92EF92FF920F931F9315
:1031F000CF93DF93CDB7DEB72E970FB6F894DEBF2F
:103200000FBECDBFDC01EA2DAF2CB02EC12ED22EC9
:10321000E32EF42E052F162FF0E0319683E0EE0F0B
:10322000FF1F8A95E1F7EA0FFB1F2C9111963C9145
:10323000119712964C91129713965C9113971496CE
:103240006C91149715967C91159716968C911697FC
:1032500017969C910E9401312083318342835383CE
:1032600064837583868397832E960FB6F894DEBFAA
:103270000FBECDBFDF91CF911F910F91FF90EF90C7
:10328000DF90CF90BF90AF9008952F923F924F92D2
:103290005F926F927F928F929F92AF92BF92CF92E6
:1032A000DF92EF92FF920F931F93CF93DF93CDB7EF
:1032B000DEB760970FB6F894DEBF0FBECDBFFC013E
:1032C0008A2CAF2CB02EC12ED22EE32EF42E052F39
:1032D000162F208031804280538064807580B681B3
:1032E000BF87B781B88B912C8FEF881A980A83E03B
:1032F000880C991C8A95E1F78E0E9F1E9101A20100
:10330000B3018F859B2FA4E00E940A31D4012C9336
:1033100011963C93119712964C93129713965C93C7
:10332000139714966C93149715967C93159716968D
:103330008C93169717969C939101A201B3018F85E8
:1033400098890E94013120833183428353836483AF
:1033500075838683978360960FB6F894DEBF0FBEA1
:10336000CDBFDF91CF911F910F91FF90EF90DF9034
:10337000CF90BF90AF909F908F907F906F905F9015
:103380004F903F902F9008957F928F929F92AF928F
:10339000BF92CF92DF92EF92FF920F931F93CF9342
:1033A000DF93CDB7DEB72E970FB6F894DEBF0FBE12
:1033B000CDBFFC018A2C7C2CAF2CB02EC12ED22E7E
:1033C000E32EF42E052F162F912C8FEF881A980AD2
:1033D00083E0880C991C8A95E1F78E0E9F1E208150
:1033E0003181428153816481758186819781A4E016
:1033F0000E940A31D4012C9311963C931197129696
:103400004C93129713965C93139714966C9314979E
:1034100015967C93159716968C93169717969C93F2
:10342000A72DB0E0119693E0AA0FBB1F9A95E1F784
:10343000AE0FBF1F2C9111963C91119712964C9193
:10344000129713965C91139714966C911497159696
:103450007C91159716968C91169717969C910E94C1
:103460000131208331834283538364837583868350
:1034700097832E960FB6F894DEBF0FBECDBFDF91B7
:10348000CF911F910F91FF90EF90DF90CF90BF9061
:10349000AF909F908F907F9008958F929F92AF9260
:1034A000BF92CF92DF92EF92FF920F931F93CF9331
:1034B000DF93CDB7DEB72E970FB6F894DEBF0FBE01
:1034C000CDBFFC01FE820F83188729873A874B877F
:1034D0005C876D87AC2DB0E0119683E0AA0FBB1F0F
:1034E0008A95E1F74D018E0E9F1E8D2D90E001967D
:1034F00023E0880F991F2A95E1F78E0F9F1FD401B3
:103500002C9111963C91119712964C91129713960B
:103510005C91139714966C91149715967C91DC012D
:10352000AC901196BC9011971296CC90129713966E
:10353000DC9013971496EC9014971596FC901597C1
:1035400016960C91169717961C91D40116968C918D
:10355000169717969C910E941F31D1F420813181DA
:10356000428153816481758186819781AE80BF805D
:10357000C884D984EA84FB840C851D850E940131AE
:103580002083318342835383648375838683978347
:103590002E960FB6F894DEBF0FBECDBFDF91CF9150
:1035A0001F910F91FF90EF90DF90CF90BF90AF9061
:1035B0009F908F9008958F929F92AF92BF92CF92DB
:1035C000DF92EF92FF920F931F93CF93DF93CDB7CC
:1035D000DEB72E970FB6F894DEBF0FBECDBFFC014D
:1035E000FE820F83188729873A874B875C876D8710
:1035F000AC2DB0E0119683E0AA0FBB1F8A95E1F7CE
:103600004D018E0E9F1E8D2D90E0019623E0880FB8
:10361000991F2A95E1F78E0F9F1FD4012C911196C7
:103620003C91119712964C91129713965C911397B7
:1036300014966C91149715967C91DC01AC901196C0
:10364000BC9011971296CC9012971396DC9013971A
:103650001496EC9014971596FC90159716960C916D
:10366000169717961C91D40116968C91169717965B
:103670009C910E941F31D1F0208131814281538180
:103680006481758186819781AE80BF80C884D9842A
:10369000EA84FB840C851D850E94013120833183DF
:1036A0004283538364837583868397832E960FB6F4
:1036B000F894DEBF0FBECDBFDF91CF911F910F9168
:1036C000FF90EF90DF90CF90BF90AF909F908F9042
:1036D00008958F929F92AF92BF92CF92DF92EF9216
:1036E000FF920F931F93CF93DF93CDB7DEB72E9743
:1036F0000FB6F894DEBF0FBECDBFFC01FE820F8374
:10370000188729873A874B875C876D87AC2DB0E097
:10371000119683E0AA0FBB1F8A95E1F74D018E0E2B
:103720009F1E8D2D90E0019623E0880F991F2A950A
:10373000E1F78E0F9F1FD4012C9111963C911197A8
:1037400012964C91129713965C91139714966C9164
:10375000149715967C91DC01AC901196BC90119752
:103760001296CC9012971396DC9013971496EC90C7
:1037700014971596FC90159716960C911697179618
:103780001C91D40116968C91169717969C910E94C5
:103790001F31D4F42081318142815381648175814C
:1037A00086819781AE80BF80C884D984EA84FB84F7
:1037B0000C851D850E940131208331834283538310
:1037C00064837583868397832E960FB6F894DEBF45
:1037D0000FBECDBFDF91CF911F910F91FF90EF9062
:1037E000DF90CF90BF90AF909F908F9008958F9271
:1037F0009F92AF92BF92CF92DF92EF92FF920F9380
:103800001F93CF93DF93CDB7DEB72E970FB6F89403
:10381000DEBF0FBECDBFFC01FE820F831887298754
:103820003A874B875C876D87AC2DB0E0119683E0BB
:10383000AA0FBB1F8A95E1F74D018E0E9F1E8D2D9D
:1038400090E0019623E0880F991F2A95E1F78E0FEB
:103850009F1FD4012C9111963C91119712964C9177
:10386000129713965C91139714966C911497159672
:103870007C91DC01AC901196BC9011971296CC9083
:1038800012971396DC9013971496EC901497159654
:10389000FC90159716960C91169717961C91D401CB
:1038A00016968C91169717969C910E941F31D4F012
:1038B0002081318142815381648175818681978124
:1038C000AE80BF80C884D984EA84FB840C851D85C2
:1038D0000E94013120833183428353836483758343
:1038E000868397832E960FB6F894DEBF0FBECDBFAA
:1038F000DF91CF911F910F91FF90EF90DF90CF90CC
:10390000BF90AF909F908F9008958F929F92AF92AB
:10391000BF92CF92DF92EF92FF920F931F93CF93BC
:10392000DF93CDB7DEB72E970FB6F894DEBF0FBE8C
:10393000CDBFFC01FE820F83188729873A874B870A
:103940005C876D87AC2DB0E0119683E0AA0FBB1F9A
:103950008A95E1F74D018E0E9F1E8D2D90E0019608
:1039600023E0880F991F2A95E1F78E0F9F1FD4013E
:103970002C9111963C91119712964C911297139697
:103980005C91139714966C91149715967C91DC01B9
:10399000AC901196BC9011971296CC9012971396FA
:1039A000DC9013971496EC9014971596FC9015974D
:1039B00016960C91169717961C91D40116968C9119
:1039C000169717969C910E941F31D0F42081318167
:1039D000428153816481758186819781AE80BF80E9
:1039E000C884D984EA84FB840C851D850E9401313A
:1039F00020833183428353836483758386839783D3
:103A00002E960FB6F894DEBF0FBECDBFDF91CF91DB
:103A10001F910F91FF90EF90DF90CF90BF90AF90EC
:103A20009F908F9008958F929F92AF92BF92CF9266
:103A3000DF92EF92FF920F931F93CF93DF93CDB757
:103A4000DEB72E970FB6F894DEBF0FBECDBFFC01D8
:103A5000FE820F83188729873A874B875C876D879B
:103A6000AC2DB0E0119683E0AA0FBB1F8A95E1F759
:103A70004D018E0E9F1E8D2D90E0019623E0880F44
:103A8000991F2A95E1F78E0F9F1FD4012C91119653
:103A90003C91119712964C91129713965C91139743
:103AA00014966C91149715967C91DC01AC9011964C
:103AB000BC9011971296CC9012971396DC901397A6
:103AC0001496EC9014971596FC90159716960C91F9
:103AD000169717961C91D40116968C9116971796E7
:103AE0009C910E941F31D0F020813181428153810D
:103AF0006481758186819781AE80BF80C884D984B6
:103B0000EA84FB840C851D850E940131208331836A
:103B10004283538364837583868397832E960FB67F
:103B2000F894DEBF0FBECDBFDF91CF911F910F91F3
:103B3000FF90EF90DF90CF90BF90AF909F908F90CD
:103B400008958F929F92AF92BF92CF92DF92EF92A1
:103B5000FF920F931F93CF93DF93CDB7DEB72E97CE
:103B60000FB6F894DEBF0FBECDBF4C01A982BA825A
:103B7000EC2DCB82DC82ED82AF2CFE82B02E0F8347
:103B8000C12E1887D22E2987E32E3A87F42E4B8731
:103B9000052F5C87162F6D877E87F0E0319683E0D6
:103BA000EE0FFF1F8A95E1F7E80DF91D20813181A5
:103BB0004281538164817581868197810E940131A0
:103BC000EE24E394F12CC12CD12C86010E941F30ED
:103BD000E980F12CF601208108E010E030E040E0BF
:103BE00050E060E070E080E090E00E949E2EFFEFE9
:103BF000EF1AFF0AF3E0EE0CFF1CFA95E1F7F4016F
:103C0000EE0DFF1D208331834283538364837583CC
:103C1000868397832E960FB6F894DEBF0FBECDBF76
:103C2000DF91CF911F910F91FF90EF90DF90CF9098
:103C3000BF90AF909F908F9008958F929F92AF9278
:103C4000BF92CF92DF92EF92FF920F931F93CF9389
:103C5000DF93CDB7DEB760970FB6F894DEBF0FBE27
:103C6000CDBF4C01AB82EC2DAF2CB02EC12ED22E8D
:103C7000E32EF42E052F162FF0E0319683E0EE0FA1
:103C8000FF1F8A95E1F7E80DF91D208131814281FE
:103C9000538164817581868197810E940131E2E0C0
:103CA000EE2EF12C8E010F5F1F4F0E941F30EB8014
:103CB000F12C29813A81932F990F990B00E110E0A3
:103CC000492F592F692F792F892F0E949E2EEFEFB0
:103CD000EE1AFE0AF3E0EE0CFF1CFA95E1F7F40190
:103CE000EE0DFF1D208331834283538364837583EC
:103CF0008683978360960FB6F894DEBF0FBECDBF64
:103D0000DF91CF911F910F91FF90EF90DF90CF90B7
:103D1000BF90AF909F908F9008954F925F926F9257
:103D20007F928F929F92AF92BF92CF92DF92EF924B
:103D3000FF920F931F93CF93DF93CDB7DEB76297B8
:103D40000FB6F894DEBF0FBECDBF4C01AD82EC2D97
:103D5000AF2CB02EC12ED22EE32EF42E052F162F0F
:103D6000F0E0319683E0EE0FFF1F8A95E1F7E80D52
:103D7000F91D208131814281538164817581868161
:103D800097810E940131E4E0EE2EF12C8E010F5F4D
:103D90001F4F0E941F30ED80F12C2C818B8190E011
:103DA000A0E0B0E0DC0199278827B22B2981822B83
:103DB0004A8150E0542F4427052E000C660B770BE8
:103DC000842B952BA62BB72B2C013D01770C440897
:103DD000542C320100E210E09C01AD01642D742DE1
:103DE000842D942D0E949E2EEFEFEE1AFE0AE3E042
:103DF000EE0CFF1CEA95E1F7F401EE0DFF1D2083A8
:103E00003183428353836483758386839783629669
:103E10000FB6F894DEBF0FBECDBFDF91CF911F91DB
:103E20000F91FF90EF90DF90CF90BF90AF909F9059
:103E30008F907F906F905F904F9008958F929F9298
:103E4000AF92BF92CF92DF92EF92FF920F931F93A8
:103E5000CF93DF93CDB7DEB72E970FB6F894DEBFC2
:103E60000FBECDBF4C01A982BA82EC2DCB82DC8281
:103E7000ED82AF2CFE82B02E0F83C12E1887D22E7A
:103E80002987E32E3A87F42E4B87052F5C87162F60
:103E90006D877E87F0E0319683E0EE0FFF1F8A95F5
:103EA000E1F7E80DF91D2081318142815381648160
:103EB0007581868197810E940131EE24E394F12C73
:103EC000C12CD12C86010E941F30898190E001967F
:103ED000F3E0880F991FFA95E1F7F401E80FF91F55
:103EE000D6018C91808311821282138214821582F2
:103EF000168217822E960FB6F894DEBF0FBECDBF86
:103F0000DF91CF911F910F91FF90EF90DF90CF90B5
:103F1000BF90AF909F908F9008958F929F92AF9295
:103F2000BF92CF92DF92EF92FF920F931F93CF93A6
:103F3000DF93CDB7DEB760970FB6F894DEBF0FBE44
:103F4000CDBF4C01AB82EC2DAF2CB02EC12ED22EAA
:103F5000E32EF42E052F162FF0E0319683E0EE0FBE
:103F6000FF1F8A95E1F7E80DF91D2081318142811B
:103F7000538164817581868197810E940131E2E0DD
:103F8000EE2EF12C8E010F5F1F4F0E941F308B8190
:103F900090E00196F3E0880F991FFA95E1F7F4019C
:103FA000E80FF91F29819A81892F880F880B2083B8
:103FB00091838283838384838583868387836096CA
:103FC0000FB6F894DEBF0FBECDBFDF91CF911F912A
:103FD0000F91FF90EF90DF90CF90BF90AF909F90A8
:103FE0008F9008959F92AF92BF92CF92DF92EF92FF
:103FF000FF920F931F93CF93DF93CDB7DEB72F9729
:104000000FB6F894DEBF0FBECDBFFC018C2DAF2CD8
:10401000B02EC12E922EE32EF42E052F162FAD2D8D
:10402000B0E0119693E0AA0FBB1F9A95E1F7AE0F8F
:10403000BF1F9C91998390E0019623E0880F991F00
:104040002A95E1F7E80FF91F2081318142815381E0
:104050006481758186819781D92C0E940131EE247B
:10406000E394F12C8E010F5F1F4F0E94B32F2F9608
:104070000FB6F894DEBF0FBECDBFDF91CF911F9179
:104080000F91FF90EF90DF90CF90BF90AF909F90F7
:1040900008959F92AF92BF92CF92DF92EF92FF92DC
:1040A0000F931F93CF93DF93CDB7DEB760970FB613
:1040B000F894DEBF0FBECDBFFC018C2DAF2CB02E0F
:1040C000C12E922EE32EF42E052F162FAD2DB0E02B
:1040D000119693E0AA0FBB1F9A95E1F7AE0FBF1F91
:1040E0002D913C913A83298390E0019623E0880F3B
:1040F000991F2A95E1F7E80FF91F2081318142814C
:1041000053816481758186819781D92C0E94013108
:10411000E2E0EE2EF12C8E010F5F1F4F0E94B32FB5
:1041200060960FB6F894DEBF0FBECDBFDF91CF9182
:104130001F910F91FF90EF90DF90CF90BF90AF90C5
:104140009F9008959F92AF92BF92CF92DF92EF928D
:10415000FF920F931F93CF93DF93CDB7DEB7629794
:104160000FB6F894DEBF0FBECDBFFC018C2DAF2C77
:10417000B02EC12E922EE32EF42E052F162FAD2D2C
:10418000B0E0119693E0AA0FBB1F9A95E1F7AE0F2E
:10419000BF1F4D915D916D917C9149835A836B83D3
:1041A0007C8390E0019623E0880F991F2A95E1F720
:1041B000E80FF91F2081318142815381648175812B
:1041C00086819781D92C0E940131E4E0EE2EF12CFA
:1041D0008E010F5F1F4F0E94B32F62960FB6F894A7
:1041E000DEBF0FBECDBFDF91CF911F910F91FF902A
:1041F000EF90DF90CF90BF90AF909F900895AF92D7
:10420000BF92CF92DF92EF92FF920F931F93CF93C3
:10421000DF93CDB7DEB72E970FB6F894DEBF0FBE93
:10422000CDBFDC01EA2D8C2DAF2CB02EC12ED22EAD
:10423000E32EF42E052F162FF0E0319693E0EE0FCB
:10424000FF1F9A95E1F7EA0FFB1F90E0019623E02C
:10425000880F991F2A95E1F7A80FB91F2C91119685
:104260003C91119712964C91129713965C9113976B
:1042700014966C91149715967C91159716968C91BF
:10428000169717969C910E940131208331834283B7
:10429000538364837583868397832E960FB6F89431
:1042A000DEBF0FBECDBFDF91CF911F910F91FF9069
:1042B000EF90DF90CF90BF90AF9008958F929F9234
:1042C000AF92BF92CF92DF92EF92FF920F931F9324
:1042D000CF93DF93CDB7DEB72E970FB6F894DEBF3E
:1042E0000FBECDBF4C01EA2DAC2DAF2CB02EC12E90
:1042F000D22EE32EF42E052F162FF0E0319683E018
:10430000EE0FFF1F8A95E1F7E80DF91DB0E0119659
:1043100093E0AA0FBB1F9A95E1F7A80DB91D992448
:1043200093942C9111963C91119712964C9112975F
:1043300013965C91139714966C91149715967C9133
:10434000159716968C91169717969C910E941F317F
:104350000CF0912C908211821282138214821582A9
:10436000168217822E960FB6F894DEBF0FBECDBF11
:10437000DF91CF911F910F91FF90EF90DF90CF9041
:10438000BF90AF909F908F9008958F929F92AF9221
:10439000BF92CF92DF92EF92FF920F931F93CF9332
:1043A000DF93CDB7DEB72E970FB6F894DEBF0FBE02
:1043B000CDBF4C01EA2DAC2DAF2CB02EC12ED22E8C
:1043C000E32EF42E052F162FF0E0319683E0EE0F4A
:1043D000FF1F8A95E1F7E80DF91DB0E0119693E013
:1043E000AA0FBB1F9A95E1F7A80DB91D99249394C4
:1043F0002C9111963C91119712964C91129713960D
:104400005C91139714966C91149715967C9115975F
:1044100016968C91169717969C910E941F3108F062
:10442000912C90821182128213821482158216823C
:1044300017822E960FB6F894DEBF0FBECDBFDF9168
:10444000CF911F910F91FF90EF90DF90CF90BF9091
:10445000AF909F908F9008958F929F92AF92BF924E
:10446000CF92DF92EF92FF920F931F93CF93DF9340
:10447000CDB7DEB72E970FB6F894DEBF0FBECDBF17
:104480004C01EA2DF0E0319683E0EE0FFF1F8A9594
:10449000E1F7E80DF91DAC2DB0E0119693E0AA0FFD
:1044A000BB1F9A95E1F7A80DB91D8C91F8261196BE
:1044B0008C911197082712968C91129718271396B2
:1044C0008C911397782F722714968C911497382714
:1044D00015968C911597282F242716968C91169750
:1044E000982F952717968C918627F0820183128347
:1044F000738334832583968387832E960FB6F8942F
:10450000DEBF0FBECDBFDF91CF911F910F91FF9006
:10451000EF90DF90CF90BF90AF909F908F900895D5
:104520008F929F92AF92BF92CF92DF92EF92FF92C3
:104530000F931F93CF93DF93CDB7DEB72E970FB6B0
:10454000F894DEBF0FBECDBF4C01EA2DF0E03196EE
:1045500083E0EE0FFF1F8A95E1F7E80DF91DAC2D02
:10456000B0E0119693E0AA0FBB1F9A95E1F7A80D52
:10457000B91D8C91F82A11968C911197082B1296DF
:104580008C911297182B13968C911397782F722B6E
:1045900014968C911497382B15968C911597282F7B
:1045A000242B16968C911697982F952B17968C91F5
:1045B000862BF08201831283738334832583968351
:1045C00087832E960FB6F894DEBF0FBECDBFDF9166
:1045D000CF911F910F91FF90EF90DF90CF90BF9000
:1045E000AF909F908F9008958F929F92AF92BF92BD
:1045F000CF92DF92EF92FF920F931F93CF93DF93AF
:10460000CDB7DEB72E970FB6F894DEBF0FBECDBF85
:104610004C01EA2DF0E0319683E0EE0FFF1F8A9502
:10462000E1F7E80DF91DAC2DB0E0119693E0AA0F6B
:10463000BB1F9A95E1F7A80DB91D8C91F822119630
:104640008C911197082312968C9112971823139628
:104650008C911397782F722314968C91149738238A
:1046600015968C911597282F242316968C911697C2
:10467000982F952317968C918623F08201831283BD
:10468000738334832583968387832E960FB6F8949D
:10469000DEBF0FBECDBFDF91CF911F910F91FF9075
:1046A000EF90DF90CF90BF90AF909F908F90089544
:1046B000AF92BF92CF92DF92EF92FF920F931F9330
:1046C000CF93DF93CDB7DEB72E970FB6F894DEBF4A
:1046D0000FBECDBFDC010F2DEA2DF0E0319683E057
:1046E000EE0FFF1F8A95E1F7EA0FFB1FD12C8FEF2A
:1046F000C81AD80A93E0CC0CDD1C9A95E1F7AC0DF2
:10470000BD1D2C9111963C91119712964C911297C8
:1047100013965C91139714966C91149715967C914F
:10472000159716968C91169717969C910E94CB30F0
:104730002083318342835383648375838683978385
:104740002E960FB6F894DEBF0FBECDBFDF91CF918E
:104750001F910F91FF90EF90DF90CF90BF90AF909F
:104760000895AF92BF92CF92DF92EF92FF920F9394
:104770001F93CF93DF93CDB7DEB72E970FB6F89484
:10478000DEBF0FBECDBFDC010F2DEA2DF0E031966C
:1047900083E0EE0FFF1F8A95E1F7EA0FFB1FD12C94
:1047A0008FEFC81AD80A93E0CC0CDD1C9A95E1F77C
:1047B000AC0DBD1D2C9111963C91119712964C9108
:1047C000129713965C91139714966C911497159603
:1047D0007C91159716968C91169717969C910E942E
:1047E000E6302083318342835383648375838683D9
:1047F00097832E960FB6F894DEBF0FBECDBFDF9124
:10480000CF911F910F91FF90EF90DF90CF90BF90CD
:10481000AF900895AF92BF92CF92DF92EF92FF9246
:104820000F931F93CF93DF93CDB7DEB72E970FB6BD
:10483000F894DEBF0FBECDBFDC010F2DEA2DF0E0F6
:10484000319683E0EE0FFF1F8A95E1F7EA0FFB1F19
:10485000D12C8FEFC81AD80A93E0CC0CDD1C9A95A6
:10486000E1F7AC0DBD1D2C9111963C91119712965C
:104870004C91129713965C91139714966C91149720
:1048800015967C91159716968C91169717969C9174
:104890000E94E43020833183428353836483758391
:1048A000868397832E960FB6F894DEBF0FBECDBFDA
:1048B000DF91CF911F910F91FF90EF90DF90CF90FC
:1048C000BF90AF9008958F929F92AF92BF92CF9278
:1048D000DF92EF92FF920F931F93CF93DF93CDB7A9
:1048E000DEB72E970FB6F894DEBF0FBECDBF4C01DA
:1048F000EA2DF0E0319683E0EE0FFF1F8A95E1F795
:10490000E80DF91DAC2DB0E0119693E0AA0FBB1F86
:104910009A95E1F7A80DB91D8D2D90E0019623E041
:10492000880F991F2A95E1F7880E991E2C911196F0
:104930003C91119712964C91129713965C91139794
:1049400014966C91149715967C91159716968C91E8
:10495000169717969C91D401AC901196BC90119724
:104960001296CC9012971396DC9013971496EC90B5
:1049700014971596FC90159716960C911697179606
:104980001C910E94013120833183428353836483CD
:104990007583868397832E960FB6F894DEBF0FBE7D
:1049A000CDBFDF91CF911F910F91FF90EF90DF90DE
:1049B000CF90BF90AF909F908F9008958F929F92CD
:1049C000AF92BF92CF92DF92EF92FF920F931F931D
:1049D000CF93DF93CDB7DEB72E970FB6F894DEBF37
:1049E0000FBECDBF4C01EA2DF0E0319683E0EE0F13
:1049F000FF1F8A95E1F7E80DF91DAC2DB0E0119687
:104A000093E0AA0FBB1F9A95E1F7A80DB91D8D2D54
:104A100090E0019623E0880F991F2A95E1F7880E10
:104A2000991E2C9111963C91119712964C911297C8
:104A300013965C91139714966C91149715967C912C
:104A4000159716968C91169717969C91D401AC9059
:104A50001196BC9011971296CC9012971396DC90F9
:104A600013971496EC9014971596FC90159716963C
:104A70000C91169717961C910E9416312083318352
:104A80004283538364837583868397832E960FB600
:104A9000F894DEBF0FBECDBFDF91CF911F910F9174
:104AA000FF90EF90DF90CF90BF90AF909F908F904E
:104AB0000895AF92BF92CF92DF92EF92FF920F9341
:104AC0001F93CF93DF93CDB7DEB72E970FB6F89431
:104AD000DEBF0FBECDBF9C01EA2DF0E0319683E032
:104AE000EE0FFF1F8A95E1F75F01A20EB31EAC2DFA
:104AF000B0E0119693E0AA0FBB1F9A95E1F7A20FC1
:104B0000B31F8D2D90E0019643E0880F991F4A95C1
:104B1000E1F7280F391FF901008111810F73112767
:104B20002C9111963C91119712964C9112971396D5
:104B30005C91139714966C91149715967C91159728
:104B400016968C91169717969C910E94CB30F50182
:104B50002083318342835383648375838683978361
:104B60002E960FB6F894DEBF0FBECDBFDF91CF916A
:104B70001F910F91FF90EF90DF90CF90BF90AF907B
:104B800008956F927F929F92AF92BF92CF92DF92E1
:104B9000EF92FF920F931F93CF93DF93CDB7DEB7C2
:104BA0002E970FB6F894DEBF0FBECDBF9C01EA2D45
:104BB000F0E0319683E0EE0FFF1F8A95E1F73F01A9
:104BC000620E731EAC2DB0E0119693E0AA0FBB1FCE
:104BD0009A95E1F7A20FB31F8D2D90E0019643E067
:104BE000880F991F4A95E1F7820F931F9924939498
:104BF0002C9111963C91119712964C911297139605
:104C00005C91139714966C91149715967C91159757
:104C1000FC01A080B180C280D380E480F580068151
:104C2000178116968C91169717969C910E941F31AA
:104C30000CF0912CF3019082118212821382148263
:104C40001582168217822E960FB6F894DEBF0FBE1D
:104C5000CDBFDF91CF911F910F91FF90EF90DF902B
:104C6000CF90BF90AF909F907F906F9008956F927C
:104C70007F929F92AF92BF92CF92DF92EF92FF927C
:104C80000F931F93CF93DF93CDB7DEB72E970FB659
:104C9000F894DEBF0FBECDBF9C01EA2DF0E0319647
:104CA00083E0EE0FFF1F8A95E1F73F01620E731E4E
:104CB000AC2DB0E0119693E0AA0FBB1F9A95E1F7D7
:104CC000A20FB31F8D2D90E0019643E0880F991F2E
:104CD0004A95E1F7820F931F992493942C91119692
:104CE0003C91119712964C91129713965C911397E1
:104CF00014966C91149715967C911597FC01A080E1
:104D0000B180C280D380E480F58006811781169639
:104D10008C91169717969C910E941F3108F0912C48
:104D2000F3019082118212821382148215821682FC
:104D300017822E960FB6F894DEBF0FBECDBFDF915F
:104D4000CF911F910F91FF90EF90DF90CF90BF9088
:104D5000AF909F907F906F900895AF92BF92CF9247
:104D6000DF92EF92FF920F931F93CF93DF93CDB714
:104D7000DEB72E970FB6F894DEBF0FBECDBF9C01F5
:104D8000EA2DF0E0319683E0EE0FFF1F8A95E1F700
:104D90005F01A20EB31E8C2D90E0019643E0880FB8
:104DA000991F4A95E1F7820F931FAD2DB0E0119640
:104DB00053E0AA0FBB1F5A95E1F7A20FB31FFC01E6
:104DC000D0802C91D226718111962C911197722747
:104DD000628112962C9112976227538113962C911F
:104DE00013975227448114962C91149742273581AA
:104DF00015962C911597322726811696CC901697EA
:104E00002C25878117969C918927F501D082718383
:104E10006283538344833583268387832E960FB61C
:104E2000F894DEBF0FBECDBFDF91CF911F910F91E0
:104E3000FF90EF90DF90CF90BF90AF900895AF922A
:104E4000BF92CF92DF92EF92FF920F931F93CF9377
:104E5000DF93CDB7DEB72E970FB6F894DEBF0FBE47
:104E6000CDBF9C01EA2DF0E0319683E0EE0FFF1FED
:104E70008A95E1F75F01A20EB31EAC2DB0E011964A
:104E800093E0AA0FBB1F9A95E1F7A20FB31F8D2DD8
:104E900090E0019643E0880F991F4A95E1F7280FAB
:104EA000391FF901008111810F7311272C9111967F
:104EB0003C91119712964C91129713965C9113970F
:104EC00014966C91149715967C91159716968C9163
:104ED000169717969C910E94E630F5012083318346
:104EE0004283538364837583868397832E960FB69C
:104EF000F894DEBF0FBECDBFDF91CF911F910F9110
:104F0000FF90EF90DF90CF90BF90AF900895AF9259
:104F1000BF92CF92DF92EF92FF920F931F93CF93A6
:104F2000DF93CDB7DEB72E970FB6F894DEBF0FBE76
:104F3000CDBF9C01EA2DF0E0319683E0EE0FFF1F1C
:104F40008A95E1F75F01A20EB31EAC2DB0E0119679
:104F500093E0AA0FBB1F9A95E1F7A20FB31F8D2D07
:104F600090E0019643E0880F991F4A95E1F7280FDA
:104F7000391FF901008111810F7311272C911196AE
:104F80003C91119712964C91129713965C9113973E
:104F900014966C91149715967C91159716968C9192
:104FA000169717969C910E94E430F5012083318377
:104FB0004283538364837583868397832E960FB6CB
:104FC000F894DEBF0FBECDBFDF91CF911F910F913F
:104FD000FF90EF90DF90CF90BF90AF900895AF9289
:104FE000BF92CF92DF92EF92FF920F931F93CF93D6
:104FF000DF93CDB7DEB72E970FB6F894DEBF0FBEA6
:10500000CDBF9C01EA2DF0E0319683E0EE0FFF1F4B
:105010008A95E1F75F01A20EB31E8C2D90E00196F8
:1050200043E0880F991F4A95E1F7820F931FAD2D3A
:10503000B0E0119653E0AA0FBB1F5A95E1F7A20FFB
:10504000B31FFC01D0802C91D22A718111962C9132
:105050001197722B628112962C911297622B5381B9
:1050600013962C911397522B448114962C911497DC
:10507000422B358115962C911597322B2681169649
:10508000CC9016972C29878117969C91892BF50136
:10509000D0827183628353834483358326838783DD
:1050A0002E960FB6F894DEBF0FBECDBFDF91CF9125
:1050B0001F910F91FF90EF90DF90CF90BF90AF9036
:1050C0000895AF92BF92CF92DF92EF92FF920F932B
:1050D0001F93CF93DF93CDB7DEB72E970FB6F8941B
:1050E000DEBF0FBECDBF9C01EA2DF0E0319683E01C
:1050F000EE0FFF1F8A95E1F75F01A20EB31E8C2D04
:1051000090E0019643E0880F991F4A95E1F7820FDE
:10511000931FAD2DB0E0119653E0AA0FBB1F5A9517
:10512000E1F7A20FB31FFC01D0802C91D222718134
:1051300011962C9111977223628112962C911297DD
:105140006223538113962C91139752234481149612
:105150002C9114974223358115962C911597322363
:1051600026811696CC9016972C21878117969C91B4
:105170008923F501D082718362835383448335830D
:10518000268387832E960FB6F894DEBF0FBECDBF61
:10519000DF91CF911F910F91FF90EF90DF90CF9013
:1051A000BF90AF900895AF92BF92CF92DF92EF92EF
:1051B000FF920F931F93CF93DF93CDB7DEB72E9758
:1051C0000FB6F894DEBF0FBECDBF2E960FB6F89483
:1051D000DEBF0FBECDBFDF91CF911F910F91FF902A
:1051E000EF90DF90CF90BF90AF900895AF92BF92B5
:1051F000CF92DF92EF92FF920F931F93CF93DF93A3
:10520000CDB7DEB72E970FB6F894DEBF0FBECDBF79
:105210002E960FB6F894DEBF0FBECDBFDF91CF91B3
:105220001F910F91FF90EF90DF90CF90BF90AF90C4
:105230000C944713AF92BF92CF92DF92EF92FF92FE
:105240000F931F93CF93DF93CDB7DEB72E970FB693
:10525000F894DEBF0FBECDBF2E960FB6F894DEBF1A
:105260000FBECDBFDF91CF911F910F91FF90EF90B7
:10527000DF90CF90BF90AF9008958F929F92AF92A2
:10528000BF92CF92DF92EF92FF920F931F93CF9333
:10529000DF93CDB7DEB762970FB6F894DEBF0FBECF
:1052A000CDBF4C01AD82EC2DAF2CB02EC12ED22E35
:1052B000E32EF42E052F162FF0E0319683E0EE0F4B
:1052C000FF1F8A95E1F7E80DF91D208131814281A8
:1052D000538164817581868197810E940131E4E068
:1052E000EE2EF12C8E010F5F1F4F0E941F30ED81BB
:1052F000F0E03196A3E0EE0FFF1FAA95E1F7E80D6D
:10530000F91D2C8130E040E050E060E070E080E08A
:1053100090E008E10E94CB30B22EC32ED42EE52EB1
:10532000F62E172FB82FA92F2B8130E040E050E048
:1053300060E070E080E090E000E10E94CB30B22AB3
:105340002981B22AC32AD42AE52AF62A172BB82B98
:105350009A2B8A81A82FAA0FAA0BC82ADA2AEA2A2E
:10536000FA2A1A2BBA2BA92BB082C182D282E382ED
:10537000F4821583B683A78362960FB6F894DEBFD6
:105380000FBECDBFDF91CF911F910F91FF90EF9096
:10539000DF90CF90BF90AF909F908F9008958F92A5
:1053A0009F92AF92BF92CF92DF92EF92FF920F93B4
:1053B0001F93CF93DF93CDB7DEB766970FB6F89400
:1053C000DEBF0FBECDBF4C01A986EC2DAF2CB02E99
:1053D000C12ED22EE32EF42E052F162FF0E031969B
:1053E00083E0EE0FFF1F8A95E1F7E80DF91D20819C
:1053F00031814281538164817581868197810E94C8
:105400000131E8E0EE2EF12C8E010F5F1F4F0E945C
:105410001F30E984F12C29813A814B815C816D81B7
:105420007E8100E410E08F8198850E949E2EEFEF30
:10543000EE1AFE0AF3E0EE0CFF1CFA95E1F7F40118
:10544000EE0DFF1D20833183428353836483758374
:105450008683978366960FB6F894DEBF0FBECDBFE6
:10546000DF91CF911F910F91FF90EF90DF90CF9040
:10547000BF90AF909F908F9008959F92AF92BF92F0
:10548000CF92DF92EF92FF920F931F93CF93DF9310
:10549000CDB7DEB766970FB6F894DEBF0FBECDBFAF
:1054A000DC018C2DAF2CB02EC12E922EE32EF42ECB
:1054B000052F162FED2DF0E0319693E0EE0FFF1F34
:1054C0009A95E1F7EA0FFB1FD080718162815381C9
:1054D0004481358126819781D9827A836B835C836D
:1054E0004D833E832F83988790E0019623E0880FB9
:1054F000991F2A95E1F7A80FB91F2C9111963C919D
:10550000119712964C91129713965C9113971496DB
:105510006C91149715967C91159716968C91169709
:1055200017969C91D92C0E940131E8E0EE2EF12CC7
:105530008E010F5F1F4F0E94B32F66960FB6F8942F
:10554000DEBF0FBECDBFDF91CF911F910F91FF90B6
:10555000EF90DF90CF90BF90AF909F9008952F92E3
:105560003F924F925F926F927F928F929F92AF92F3
:10557000BF92CF92DF92EF92FF920F931F93CF9340
:10558000DF93CDB7DEB72E970FB6F894DEBF0FBE10
:10559000CDBF4C016A2CEC2DAF2CB02EC12ED22EDB
:1055A000E32EF42E052F162F712CF0E0319683E0B8
:1055B000EE0FFF1F8A95E1F7E80DF91D80819181BB
:1055C000A281B3811C012D01550C2208322C21012E
:1055D0009C01AD01622D722D822D922D0E94013110
:1055E00000E210E00E949E2EEFEF6E1A7E0AE3E0CA
:1055F000660C771CEA95E1F7F401E60DF71D2083B0
:1056000031834283538364837583868397832E9685
:105610000FB6F894DEBF0FBECDBFDF91CF911F91C3
:105620000F91FF90EF90DF90CF90BF90AF909F9041
:105630008F907F906F905F904F903F902F90089544
:105640008F929F92AF92BF92CF92DF92EF92FF9292
:105650000F931F93CF93DF93CDB7DEB72E970FB67F
:10566000F894DEBF0FBECDBF4C01FE820F83B12C7C
:10567000EC2DF0E0319683E0EE0FFF1F8A95E1F705
:10568000E80DF91D2E813F812F7133278081918193
:10569000A281B38104C0880F991FAA1FBB1F2A953E
:1056A000D2F76C017D01FF0CCC08DC2C760100E206
:1056B00010E09C01AD016C2D7C2D8C2D9C2D0E9449
:1056C0009E2EEFEFAE1ABE0AE3E0AA0CBB1CEA95D1
:1056D000E1F7F401EA0DFB1D2083318342835383FC
:1056E00064837583868397832E960FB6F894DEBF06
:1056F0000FBECDBFDF91CF911F910F91FF90EF9023
:10570000DF90CF90BF90AF909F908F9008952F9291
:105710003F924F925F926F927F928F929F92AF9241
:10572000BF92CF92DF92EF92FF920F931F93CF938E
:10573000DF93CDB7DEB760970FB6F894DEBF0FBE2C
:10574000CDBF8F87988BFE820F83B12CEC2DF0E0BC
:10575000319683E0EE0FFF1F8A95E1F78F859889D8
:10576000E80FF91F2E813F812F71332780819181AE
:10577000A281B38104C0B695A795979587952A9580
:10578000D2F71C012D0100E210E09C01A20160E0B3
:1057900070E080E090E00E949E2EEFEFAE1ABE0A0D
:1057A000E3E0AA0CBB1CEA95E1F7EF85F889EA0D66
:1057B000FB1D2083318342835383648375838683F7
:1057C000978360960FB6F894DEBF0FBECDBFDF9112
:1057D000CF911F910F91FF90EF90DF90CF90BF90EE
:1057E000AF909F908F907F906F905F904F903F9081
:1057F0002F9008958F929F92AF92BF92CF92DF9297
:10580000EF92FF920F931F93CF93DF93CDB7DEB745
:105810002E970FB6F894DEBF0FBECDBF4C01FE82AF
:105820000F83B12CEC2DF0E0319683E0EE0FFF1FDB
:105830008A95E1F7E80DF91D2E813F812F713327FD
:1058400080819181A281B38104C0B595A795979578
:1058500087952A95D2F76C017D01FF0CCC08DC2CD2
:10586000760100E210E09C01AD016C2D7C2D8C2DA9
:105870009C2D0E949E2EEFEFAE1ABE0AE3E0AA0C0A
:10588000BB1CEA95E1F7F401EA0DFB1D208331838F
:105890004283538364837583868397832E960FB6E2
:1058A000F894DEBF0FBECDBFDF91CF911F910F9156
:1058B000FF90EF90DF90CF90BF90AF909F908F9030
:1058C00008954F925F926F927F92AF92BF92CF9264
:1058D000DF92EF92FF920F931F93CF93DF93CDB799
:1058E000DEB72E970FB6F894DEBF0FBECDBF7C019A
:1058F000B12CAC2DB0E0119683E0AA0FBB1F8A95A6
:10590000E1F7AE0DBF1DED2DF0E0319693E0EE0F07
:10591000FF1F9A95E1F7EE0DFF1D8D919D910D9062
:10592000BC91A02D4081518162817381840F951FAC
:10593000A61FB71F2C013D01770C4408542C3201DF
:1059400000E210E09C01AD01642D742D842D942D96
:105950000E949E2EEFEFAE1ABE0AE3E0AA0CBB1C1B
:10596000EA95E1F7F701EA0DFB1D208331834283BD
:10597000538364837583868397832E960FB6F8943A
:10598000DEBF0FBECDBFDF91CF911F910F91FF9072
:10599000EF90DF90CF90BF90AF907F906F905F902F
:1059A0004F9008954F925F926F927F92AF92BF9205
:1059B000CF92DF92EF92FF920F931F93CF93DF93DB
:1059C000CDB7DEB72E970FB6F894DEBF0FBECDBFB2
:1059D0007C01B12CAC2DB0E0119683E0AA0FBB1F67
:1059E0008A95E1F7AE0DBF1DED2DF0E0319693E005
:1059F000EE0FFF1F9A95E1F7EE0DFF1D8D919D9122
:105A00000D90BC91A02D4081518162817381841BD6
:105A1000950BA60BB70B2C013D01770C4408542CB9
:105A2000320100E210E09C01AD01642D742D842D43
:105A3000942D0E949E2EEFEFAE1ABE0AE3E0AA0C50
:105A4000BB1CEA95E1F7F701EA0DFB1D20833183CA
:105A50004283538364837583868397832E960FB620
:105A6000F894DEBF0FBECDBFDF91CF911F910F9194
:105A7000FF90EF90DF90CF90BF90AF907F906F90AE
:105A80005F904F9008954F925F926F927F92AF9286
:105A9000BF92CF92DF92EF92FF920F931F93CF931B
:105AA000DF93CDB7DEB72E970FB6F894DEBF0FBEEB
:105AB000CDBF7C01B12CEC2DF0E0319683E0EE0FF0
:105AC000FF1F8A95E1F7EE0DFF1DAD2DB0E0119699
:105AD00093E0AA0FBB1F9A95E1F7AE0DBF1D2D9164
