:100000000C9434000C9451000C9451000C94510049
:100010000C9451000C9451000C9451000C9451001C
:100020000C9451000C9451000C9451000C9451000C
:100030000C9451000C9451000C9451000C945100FC
:100040000C9451000C9451000C9451000C945100EC
:100050000C9451000C9451000C9451000C945100DC
:100060000C9451000C94510011241FBECFEFD8E026
:10007000DEBFCDBF11E0A0E0B1E0E6E3F1E002C0F9
:1000800005900D92AC30B107D9F721E0ACE0B1E0BA
:1000900001C01D92A231B207E1F70E9453000C94F7
:1000A00099000C940000259A80E091E00E946D0078
:1000B0002D9A2FEF85EA9EE0215080409040E1F795
:1000C00000C000002D982FEF85EA9EE0215080406F
:1000D0009040E1F700C00000E7CF0F931F93CF934C
:1000E000DF93E0910E01F0910F01238100E010E019
:1000F00021FD0EC00FEF1FEFC801DF91CF911F91BF
:100100000F9108950995892B11F00FEF1FEFCE0184
:10011000EC01899160910E0170910F01DB0118963D
:10012000ED91FC918111EECF8AE00995892B21F3A5
:06013000E1CFF894FFCFBF
:0C01360048656C6C6F20776F726C640081
:00000001FF
