:100000000C9434000C9449000C9449000C94490061
:100010000C9449000C9449000C9449000C9449003C
:100020000C9449000C9449000C9449000C9449002C
:100030000C9449000C9449000C9449000C9449001C
:100040000C9449000C9449000C9449000C9449000C
:100050000C9449000C9449000C9449000C944900FC
:100060000C9449000C94490011241FBECFEFD8E036
:10007000DEBFCDBF11E0A0E0B1E0ECE7F1E002C0EF
:1000800005900D92AE30B107D9F70E94AA000C94EA
:10009000BC000C9400001092C50087E68093C40059
:1000A00086E08093C20088E18093C100089580912A
:1000B000C00087FFFCCF8091C60008959B01FC0122
:1000C00080E090E0821793070CF008954091C00003
:1000D00045FFFCCF41914093C6000196F3CFCF92EC
:1000E000DF92EF92FF920F931F93CF93DF9300D095
:1000F000CDB7DEB76C018B0181E08A8361E070E0EF
:10010000CE0102960E945E00760117FF0BC00F9091
:100110000F90DF91CF911F910F91FF90EF90DF90A3
:10012000CF900895802F011591E019070CF08FEF03
:10013000898361E070E0CE0101960E945E006981D2
:1001400070E0C7010E945E000F5F11098FEFE80E9B
:10015000F11CDBCF0E944B006DE070E080E091E08D
:100160000E946F002FEF83ED90E32150804090407C
:0C017000E1F700C00000F0CFF894FFCFD2
:0E017C0048656C6C6F20576F726C64210A002E
:00000001FF
